{
  "contractName": "CreativeCoding",
  "abi": [
    {
      "inputs": [
        {
          "internalType": "string",
          "name": "uri",
          "type": "string"
        },
        {
          "internalType": "bytes32",
          "name": "merkleroot",
          "type": "bytes32"
        },
        {
          "internalType": "address",
          "name": "_proxyRegistryAddress",
          "type": "address"
        }
      ],
      "stateMutability": "nonpayable",
      "type": "constructor"
    },
    {
      "anonymous": false,
      "inputs": [
        {
          "indexed": true,
          "internalType": "address",
          "name": "owner",
          "type": "address"
        },
        {
          "indexed": true,
          "internalType": "address",
          "name": "approved",
          "type": "address"
        },
        {
          "indexed": true,
          "internalType": "uint256",
          "name": "tokenId",
          "type": "uint256"
        }
      ],
      "name": "Approval",
      "type": "event"
    },
    {
      "anonymous": false,
      "inputs": [
        {
          "indexed": true,
          "internalType": "address",
          "name": "owner",
          "type": "address"
        },
        {
          "indexed": true,
          "internalType": "address",
          "name": "operator",
          "type": "address"
        },
        {
          "indexed": false,
          "internalType": "bool",
          "name": "approved",
          "type": "bool"
        }
      ],
      "name": "ApprovalForAll",
      "type": "event"
    },
    {
      "anonymous": false,
      "inputs": [
        {
          "indexed": true,
          "internalType": "contract IERC20",
          "name": "token",
          "type": "address"
        },
        {
          "indexed": false,
          "internalType": "address",
          "name": "to",
          "type": "address"
        },
        {
          "indexed": false,
          "internalType": "uint256",
          "name": "amount",
          "type": "uint256"
        }
      ],
      "name": "ERC20PaymentReleased",
      "type": "event"
    },
    {
      "anonymous": false,
      "inputs": [
        {
          "indexed": true,
          "internalType": "address",
          "name": "previousOwner",
          "type": "address"
        },
        {
          "indexed": true,
          "internalType": "address",
          "name": "newOwner",
          "type": "address"
        }
      ],
      "name": "OwnershipTransferred",
      "type": "event"
    },
    {
      "anonymous": false,
      "inputs": [
        {
          "indexed": false,
          "internalType": "address",
          "name": "account",
          "type": "address"
        },
        {
          "indexed": false,
          "internalType": "uint256",
          "name": "shares",
          "type": "uint256"
        }
      ],
      "name": "PayeeAdded",
      "type": "event"
    },
    {
      "anonymous": false,
      "inputs": [
        {
          "indexed": false,
          "internalType": "address",
          "name": "from",
          "type": "address"
        },
        {
          "indexed": false,
          "internalType": "uint256",
          "name": "amount",
          "type": "uint256"
        }
      ],
      "name": "PaymentReceived",
      "type": "event"
    },
    {
      "anonymous": false,
      "inputs": [
        {
          "indexed": false,
          "internalType": "address",
          "name": "to",
          "type": "address"
        },
        {
          "indexed": false,
          "internalType": "uint256",
          "name": "amount",
          "type": "uint256"
        }
      ],
      "name": "PaymentReleased",
      "type": "event"
    },
    {
      "anonymous": false,
      "inputs": [
        {
          "indexed": true,
          "internalType": "address",
          "name": "from",
          "type": "address"
        },
        {
          "indexed": true,
          "internalType": "address",
          "name": "to",
          "type": "address"
        },
        {
          "indexed": true,
          "internalType": "uint256",
          "name": "tokenId",
          "type": "uint256"
        }
      ],
      "name": "Transfer",
      "type": "event"
    },
    {
      "inputs": [
        {
          "internalType": "address",
          "name": "",
          "type": "address"
        }
      ],
      "name": "_presaleClaimed",
      "outputs": [
        {
          "internalType": "uint256",
          "name": "",
          "type": "uint256"
        }
      ],
      "stateMutability": "view",
      "type": "function",
      "constant": true
    },
    {
      "inputs": [
        {
          "internalType": "address",
          "name": "to",
          "type": "address"
        },
        {
          "internalType": "uint256",
          "name": "tokenId",
          "type": "uint256"
        }
      ],
      "name": "approve",
      "outputs": [],
      "stateMutability": "nonpayable",
      "type": "function"
    },
    {
      "inputs": [
        {
          "internalType": "address",
          "name": "owner",
          "type": "address"
        }
      ],
      "name": "balanceOf",
      "outputs": [
        {
          "internalType": "uint256",
          "name": "",
          "type": "uint256"
        }
      ],
      "stateMutability": "view",
      "type": "function",
      "constant": true
    },
    {
      "inputs": [],
      "name": "baseExtension",
      "outputs": [
        {
          "internalType": "string",
          "name": "",
          "type": "string"
        }
      ],
      "stateMutability": "view",
      "type": "function",
      "constant": true
    },
    {
      "inputs": [],
      "name": "baseURI",
      "outputs": [
        {
          "internalType": "string",
          "name": "",
          "type": "string"
        }
      ],
      "stateMutability": "view",
      "type": "function",
      "constant": true
    },
    {
      "inputs": [
        {
          "internalType": "uint256",
          "name": "tokenId",
          "type": "uint256"
        }
      ],
      "name": "getApproved",
      "outputs": [
        {
          "internalType": "address",
          "name": "",
          "type": "address"
        }
      ],
      "stateMutability": "view",
      "type": "function",
      "constant": true
    },
    {
      "inputs": [],
      "name": "maxSupply",
      "outputs": [
        {
          "internalType": "uint256",
          "name": "",
          "type": "uint256"
        }
      ],
      "stateMutability": "view",
      "type": "function",
      "constant": true
    },
    {
      "inputs": [],
      "name": "name",
      "outputs": [
        {
          "internalType": "string",
          "name": "",
          "type": "string"
        }
      ],
      "stateMutability": "view",
      "type": "function",
      "constant": true
    },
    {
      "inputs": [],
      "name": "notRevealedUri",
      "outputs": [
        {
          "internalType": "string",
          "name": "",
          "type": "string"
        }
      ],
      "stateMutability": "view",
      "type": "function",
      "constant": true
    },
    {
      "inputs": [],
      "name": "owner",
      "outputs": [
        {
          "internalType": "address",
          "name": "",
          "type": "address"
        }
      ],
      "stateMutability": "view",
      "type": "function",
      "constant": true
    },
    {
      "inputs": [
        {
          "internalType": "uint256",
          "name": "tokenId",
          "type": "uint256"
        }
      ],
      "name": "ownerOf",
      "outputs": [
        {
          "internalType": "address",
          "name": "",
          "type": "address"
        }
      ],
      "stateMutability": "view",
      "type": "function",
      "constant": true
    },
    {
      "inputs": [],
      "name": "paused",
      "outputs": [
        {
          "internalType": "bool",
          "name": "",
          "type": "bool"
        }
      ],
      "stateMutability": "view",
      "type": "function",
      "constant": true
    },
    {
      "inputs": [
        {
          "internalType": "uint256",
          "name": "index",
          "type": "uint256"
        }
      ],
      "name": "payee",
      "outputs": [
        {
          "internalType": "address",
          "name": "",
          "type": "address"
        }
      ],
      "stateMutability": "view",
      "type": "function",
      "constant": true
    },
    {
      "inputs": [],
      "name": "presaleM",
      "outputs": [
        {
          "internalType": "bool",
          "name": "",
          "type": "bool"
        }
      ],
      "stateMutability": "view",
      "type": "function",
      "constant": true
    },
    {
      "inputs": [],
      "name": "publicM",
      "outputs": [
        {
          "internalType": "bool",
          "name": "",
          "type": "bool"
        }
      ],
      "stateMutability": "view",
      "type": "function",
      "constant": true
    },
    {
      "inputs": [
        {
          "internalType": "address payable",
          "name": "account",
          "type": "address"
        }
      ],
      "name": "release",
      "outputs": [],
      "stateMutability": "nonpayable",
      "type": "function"
    },
    {
      "inputs": [
        {
          "internalType": "contract IERC20",
          "name": "token",
          "type": "address"
        },
        {
          "internalType": "address",
          "name": "account",
          "type": "address"
        }
      ],
      "name": "release",
      "outputs": [],
      "stateMutability": "nonpayable",
      "type": "function"
    },
    {
      "inputs": [
        {
          "internalType": "contract IERC20",
          "name": "token",
          "type": "address"
        },
        {
          "internalType": "address",
          "name": "account",
          "type": "address"
        }
      ],
      "name": "released",
      "outputs": [
        {
          "internalType": "uint256",
          "name": "",
          "type": "uint256"
        }
      ],
      "stateMutability": "view",
      "type": "function",
      "constant": true
    },
    {
      "inputs": [
        {
          "internalType": "address",
          "name": "account",
          "type": "address"
        }
      ],
      "name": "released",
      "outputs": [
        {
          "internalType": "uint256",
          "name": "",
          "type": "uint256"
        }
      ],
      "stateMutability": "view",
      "type": "function",
      "constant": true
    },
    {
      "inputs": [],
      "name": "renounceOwnership",
      "outputs": [],
      "stateMutability": "nonpayable",
      "type": "function"
    },
    {
      "inputs": [],
      "name": "revealed",
      "outputs": [
        {
          "internalType": "bool",
          "name": "",
          "type": "bool"
        }
      ],
      "stateMutability": "view",
      "type": "function",
      "constant": true
    },
    {
      "inputs": [],
      "name": "root",
      "outputs": [
        {
          "internalType": "bytes32",
          "name": "",
          "type": "bytes32"
        }
      ],
      "stateMutability": "view",
      "type": "function",
      "constant": true
    },
    {
      "inputs": [
        {
          "internalType": "address",
          "name": "from",
          "type": "address"
        },
        {
          "internalType": "address",
          "name": "to",
          "type": "address"
        },
        {
          "internalType": "uint256",
          "name": "tokenId",
          "type": "uint256"
        }
      ],
      "name": "safeTransferFrom",
      "outputs": [],
      "stateMutability": "nonpayable",
      "type": "function"
    },
    {
      "inputs": [
        {
          "internalType": "address",
          "name": "from",
          "type": "address"
        },
        {
          "internalType": "address",
          "name": "to",
          "type": "address"
        },
        {
          "internalType": "uint256",
          "name": "tokenId",
          "type": "uint256"
        },
        {
          "internalType": "bytes",
          "name": "_data",
          "type": "bytes"
        }
      ],
      "name": "safeTransferFrom",
      "outputs": [],
      "stateMutability": "nonpayable",
      "type": "function"
    },
    {
      "inputs": [
        {
          "internalType": "address",
          "name": "operator",
          "type": "address"
        },
        {
          "internalType": "bool",
          "name": "approved",
          "type": "bool"
        }
      ],
      "name": "setApprovalForAll",
      "outputs": [],
      "stateMutability": "nonpayable",
      "type": "function"
    },
    {
      "inputs": [
        {
          "internalType": "address",
          "name": "account",
          "type": "address"
        }
      ],
      "name": "shares",
      "outputs": [
        {
          "internalType": "uint256",
          "name": "",
          "type": "uint256"
        }
      ],
      "stateMutability": "view",
      "type": "function",
      "constant": true
    },
    {
      "inputs": [
        {
          "internalType": "bytes4",
          "name": "interfaceId",
          "type": "bytes4"
        }
      ],
      "name": "supportsInterface",
      "outputs": [
        {
          "internalType": "bool",
          "name": "",
          "type": "bool"
        }
      ],
      "stateMutability": "view",
      "type": "function",
      "constant": true
    },
    {
      "inputs": [],
      "name": "symbol",
      "outputs": [
        {
          "internalType": "string",
          "name": "",
          "type": "string"
        }
      ],
      "stateMutability": "view",
      "type": "function",
      "constant": true
    },
    {
      "inputs": [
        {
          "internalType": "contract IERC20",
          "name": "token",
          "type": "address"
        }
      ],
      "name": "totalReleased",
      "outputs": [
        {
          "internalType": "uint256",
          "name": "",
          "type": "uint256"
        }
      ],
      "stateMutability": "view",
      "type": "function",
      "constant": true
    },
    {
      "inputs": [],
      "name": "totalReleased",
      "outputs": [
        {
          "internalType": "uint256",
          "name": "",
          "type": "uint256"
        }
      ],
      "stateMutability": "view",
      "type": "function",
      "constant": true
    },
    {
      "inputs": [],
      "name": "totalShares",
      "outputs": [
        {
          "internalType": "uint256",
          "name": "",
          "type": "uint256"
        }
      ],
      "stateMutability": "view",
      "type": "function",
      "constant": true
    },
    {
      "inputs": [
        {
          "internalType": "address",
          "name": "from",
          "type": "address"
        },
        {
          "internalType": "address",
          "name": "to",
          "type": "address"
        },
        {
          "internalType": "uint256",
          "name": "tokenId",
          "type": "uint256"
        }
      ],
      "name": "transferFrom",
      "outputs": [],
      "stateMutability": "nonpayable",
      "type": "function"
    },
    {
      "inputs": [
        {
          "internalType": "address",
          "name": "newOwner",
          "type": "address"
        }
      ],
      "name": "transferOwnership",
      "outputs": [],
      "stateMutability": "nonpayable",
      "type": "function"
    },
    {
      "stateMutability": "payable",
      "type": "receive",
      "payable": true
    },
    {
      "inputs": [
        {
          "internalType": "string",
          "name": "_tokenBaseURI",
          "type": "string"
        }
      ],
      "name": "setBaseURI",
      "outputs": [],
      "stateMutability": "nonpayable",
      "type": "function"
    },
    {
      "inputs": [],
      "name": "reveal",
      "outputs": [],
      "stateMutability": "nonpayable",
      "type": "function"
    },
    {
      "inputs": [
        {
          "internalType": "bytes32",
          "name": "merkleroot",
          "type": "bytes32"
        }
      ],
      "name": "setMerkleRoot",
      "outputs": [],
      "stateMutability": "nonpayable",
      "type": "function"
    },
    {
      "inputs": [],
      "name": "togglePause",
      "outputs": [],
      "stateMutability": "nonpayable",
      "type": "function"
    },
    {
      "inputs": [],
      "name": "togglePresale",
      "outputs": [],
      "stateMutability": "nonpayable",
      "type": "function"
    },
    {
      "inputs": [],
      "name": "togglePublicSale",
      "outputs": [],
      "stateMutability": "nonpayable",
      "type": "function"
    },
    {
      "inputs": [
        {
          "internalType": "address",
          "name": "account",
          "type": "address"
        },
        {
          "internalType": "uint256",
          "name": "_amount",
          "type": "uint256"
        },
        {
          "internalType": "bytes32[]",
          "name": "_proof",
          "type": "bytes32[]"
        }
      ],
      "name": "presaleMint",
      "outputs": [],
      "stateMutability": "payable",
      "type": "function",
      "payable": true
    },
    {
      "inputs": [
        {
          "internalType": "uint256",
          "name": "_amount",
          "type": "uint256"
        }
      ],
      "name": "publicSaleMint",
      "outputs": [],
      "stateMutability": "payable",
      "type": "function",
      "payable": true
    },
    {
      "inputs": [
        {
          "internalType": "uint256",
          "name": "tokenId",
          "type": "uint256"
        }
      ],
      "name": "tokenURI",
      "outputs": [
        {
          "internalType": "string",
          "name": "",
          "type": "string"
        }
      ],
      "stateMutability": "view",
      "type": "function",
      "constant": true
    },
    {
      "inputs": [
        {
          "internalType": "string",
          "name": "_newBaseExtension",
          "type": "string"
        }
      ],
      "name": "setBaseExtension",
      "outputs": [],
      "stateMutability": "nonpayable",
      "type": "function"
    },
    {
      "inputs": [
        {
          "internalType": "string",
          "name": "_notRevealedURI",
          "type": "string"
        }
      ],
      "name": "setNotRevealedURI",
      "outputs": [],
      "stateMutability": "nonpayable",
      "type": "function"
    },
    {
      "inputs": [],
      "name": "totalSupply",
      "outputs": [
        {
          "internalType": "uint256",
          "name": "",
          "type": "uint256"
        }
      ],
      "stateMutability": "view",
      "type": "function",
      "constant": true
    },
    {
      "inputs": [
        {
          "internalType": "address",
          "name": "owner",
          "type": "address"
        },
        {
          "internalType": "address",
          "name": "operator",
          "type": "address"
        }
      ],
      "name": "isApprovedForAll",
      "outputs": [
        {
          "internalType": "bool",
          "name": "",
          "type": "bool"
        }
      ],
      "stateMutability": "view",
      "type": "function",
      "constant": true
    }
  ],
  "bytecode": "0x6080604052600a601155604051806080016040528060418152602001620070a160419139601390805190602001906200003a929190620008a3565b506040518060400160405280600581526020017f2e6a736f6e0000000000000000000000000000000000000000000000000000008152506014908051906020019062000088929190620008a3565b506000601560006101000a81548160ff0219169083151502179055506000601560016101000a81548160ff0219169083151502179055506000601560026101000a81548160ff0219169083151502179055506000601560036101000a81548160ff0219169083151502179055506003601655662386f26fc100006018556040518060200160405280606460ff16815250601a9060016200012a92919062000934565b506040518060200160405280731899a1dada493f5b0ed642e537bdb03685a03d6c73ffffffffffffffffffffffffffffffffffffffff1673ffffffffffffffffffffffffffffffffffffffff16815250601b9060016200018c9291906200098b565b503480156200019a57600080fd5b50604051620070e2380380620070e28339818101604052810190620001c0919062000c76565b601b8054806020026020016040519081016040528092919081815260200182805480156200024457602002820191906000526020600020905b8160009054906101000a900473ffffffffffffffffffffffffffffffffffffffff1673ffffffffffffffffffffffffffffffffffffffff1681526020019060010190808311620001f9575b5050505050601a8054806020026020016040519081016040528092919081815260200182805480156200029757602002820191906000526020600020905b81548152602001906001019080831162000282575b50505050506040518060400160405280600e81526020017f4372656174697665436f64696e670000000000000000000000000000000000008152506040518060400160405280600381526020017f4352430000000000000000000000000000000000000000000000000000000000815250816000908051906020019062000320929190620008a3565b50806001908051906020019062000339929190620008a3565b5050506200035c62000350620004c660201b60201c565b620004ce60201b60201c565b60016007819055508051825114620003ab576040517f08c379a0000000000000000000000000000000000000000000000000000000008152600401620003a29062000d78565b60405180910390fd5b6000825111620003f2576040517f08c379a0000000000000000000000000000000000000000000000000000000008152600401620003e99062000dea565b60405180910390fd5b60005b825181101562000461576200044b83828151811062000419576200041862000e0c565b5b602002602001015183838151811062000437576200043662000e0c565b5b60200260200101516200059460201b60201c565b8080620004589062000e74565b915050620003f5565b50505081600f8190555080601060006101000a81548173ffffffffffffffffffffffffffffffffffffffff021916908373ffffffffffffffffffffffffffffffffffffffff160217905550620004bd83620007ce60201b60201c565b505050620011e7565b600033905090565b6000600660009054906101000a900473ffffffffffffffffffffffffffffffffffffffff16905081600660006101000a81548173ffffffffffffffffffffffffffffffffffffffff021916908373ffffffffffffffffffffffffffffffffffffffff1602179055508173ffffffffffffffffffffffffffffffffffffffff168173ffffffffffffffffffffffffffffffffffffffff167f8be0079c531659141344cd1fd0a4f28419497f9722a3daafe3b4186f6b6457e060405160405180910390a35050565b600073ffffffffffffffffffffffffffffffffffffffff168273ffffffffffffffffffffffffffffffffffffffff16141562000607576040517f08c379a0000000000000000000000000000000000000000000000000000000008152600401620005fe9062000f38565b60405180910390fd5b600081116200064d576040517f08c379a0000000000000000000000000000000000000000000000000000000008152600401620006449062000faa565b60405180910390fd5b6000600a60008473ffffffffffffffffffffffffffffffffffffffff1673ffffffffffffffffffffffffffffffffffffffff1681526020019081526020016000205414620006d2576040517f08c379a0000000000000000000000000000000000000000000000000000000008152600401620006c99062001042565b60405180910390fd5b600c829080600181540180825580915050600190039060005260206000200160009091909190916101000a81548173ffffffffffffffffffffffffffffffffffffffff021916908373ffffffffffffffffffffffffffffffffffffffff16021790555080600a60008473ffffffffffffffffffffffffffffffffffffffff1673ffffffffffffffffffffffffffffffffffffffff168152602001908152602001600020819055508060085462000789919062001064565b6008819055507f40c340f65e17194d14ddddb073d3c9f888e3cb52b5aae0c6c7706b4fbc905fac8282604051620007c2929190620010e3565b60405180910390a15050565b620007de620004c660201b60201c565b73ffffffffffffffffffffffffffffffffffffffff16620008046200087960201b60201c565b73ffffffffffffffffffffffffffffffffffffffff16146200085d576040517f08c379a0000000000000000000000000000000000000000000000000000000008152600401620008549062001160565b60405180910390fd5b806012908051906020019062000875929190620008a3565b5050565b6000600660009054906101000a900473ffffffffffffffffffffffffffffffffffffffff16905090565b828054620008b190620011b1565b90600052602060002090601f016020900481019282620008d5576000855562000921565b82601f10620008f057805160ff191683800117855562000921565b8280016001018555821562000921579182015b828111156200092057825182559160200191906001019062000903565b5b50905062000930919062000a1a565b5090565b82805482825590600052602060002090810192821562000978579160200282015b8281111562000977578251829060ff1690559160200191906001019062000955565b5b50905062000987919062000a1a565b5090565b82805482825590600052602060002090810192821562000a07579160200282015b8281111562000a065782518260006101000a81548173ffffffffffffffffffffffffffffffffffffffff021916908373ffffffffffffffffffffffffffffffffffffffff16021790555091602001919060010190620009ac565b5b50905062000a16919062000a1a565b5090565b5b8082111562000a3557600081600090555060010162000a1b565b5090565b6000604051905090565b600080fd5b600080fd5b600080fd5b600080fd5b6000601f19601f8301169050919050565b7f4e487b7100000000000000000000000000000000000000000000000000000000600052604160045260246000fd5b62000aa28262000a57565b810181811067ffffffffffffffff8211171562000ac45762000ac362000a68565b5b80604052505050565b600062000ad962000a39565b905062000ae7828262000a97565b919050565b600067ffffffffffffffff82111562000b0a5762000b0962000a68565b5b62000b158262000a57565b9050602081019050919050565b60005b8381101562000b4257808201518184015260208101905062000b25565b8381111562000b52576000848401525b50505050565b600062000b6f62000b698462000aec565b62000acd565b90508281526020810184848401111562000b8e5762000b8d62000a52565b5b62000b9b84828562000b22565b509392505050565b600082601f83011262000bbb5762000bba62000a4d565b5b815162000bcd84826020860162000b58565b91505092915050565b6000819050919050565b62000beb8162000bd6565b811462000bf757600080fd5b50565b60008151905062000c0b8162000be0565b92915050565b600073ffffffffffffffffffffffffffffffffffffffff82169050919050565b600062000c3e8262000c11565b9050919050565b62000c508162000c31565b811462000c5c57600080fd5b50565b60008151905062000c708162000c45565b92915050565b60008060006060848603121562000c925762000c9162000a43565b5b600084015167ffffffffffffffff81111562000cb35762000cb262000a48565b5b62000cc18682870162000ba3565b935050602062000cd48682870162000bfa565b925050604062000ce78682870162000c5f565b9150509250925092565b600082825260208201905092915050565b7f5061796d656e7453706c69747465723a2070617965657320616e64207368617260008201527f6573206c656e677468206d69736d617463680000000000000000000000000000602082015250565b600062000d6060328362000cf1565b915062000d6d8262000d02565b604082019050919050565b6000602082019050818103600083015262000d938162000d51565b9050919050565b7f5061796d656e7453706c69747465723a206e6f20706179656573000000000000600082015250565b600062000dd2601a8362000cf1565b915062000ddf8262000d9a565b602082019050919050565b6000602082019050818103600083015262000e058162000dc3565b9050919050565b7f4e487b7100000000000000000000000000000000000000000000000000000000600052603260045260246000fd5b7f4e487b7100000000000000000000000000000000000000000000000000000000600052601160045260246000fd5b6000819050919050565b600062000e818262000e6a565b91507fffffffffffffffffffffffffffffffffffffffffffffffffffffffffffffffff82141562000eb75762000eb662000e3b565b5b600182019050919050565b7f5061796d656e7453706c69747465723a206163636f756e74206973207468652060008201527f7a65726f20616464726573730000000000000000000000000000000000000000602082015250565b600062000f20602c8362000cf1565b915062000f2d8262000ec2565b604082019050919050565b6000602082019050818103600083015262000f538162000f11565b9050919050565b7f5061796d656e7453706c69747465723a20736861726573206172652030000000600082015250565b600062000f92601d8362000cf1565b915062000f9f8262000f5a565b602082019050919050565b6000602082019050818103600083015262000fc58162000f83565b9050919050565b7f5061796d656e7453706c69747465723a206163636f756e7420616c726561647960008201527f2068617320736861726573000000000000000000000000000000000000000000602082015250565b60006200102a602b8362000cf1565b9150620010378262000fcc565b604082019050919050565b600060208201905081810360008301526200105d816200101b565b9050919050565b6000620010718262000e6a565b91506200107e8362000e6a565b9250827fffffffffffffffffffffffffffffffffffffffffffffffffffffffffffffffff03821115620010b657620010b562000e3b565b5b828201905092915050565b620010cc8162000c31565b82525050565b620010dd8162000e6a565b82525050565b6000604082019050620010fa6000830185620010c1565b620011096020830184620010d2565b9392505050565b7f4f776e61626c653a2063616c6c6572206973206e6f7420746865206f776e6572600082015250565b60006200114860208362000cf1565b9150620011558262001110565b602082019050919050565b600060208201905081810360008301526200117b8162001139565b9050919050565b7f4e487b7100000000000000000000000000000000000000000000000000000000600052602260045260246000fd5b60006002820490506001821680620011ca57607f821691505b60208210811415620011e157620011e062001182565b5b50919050565b615eaa80620011f76000396000f3fe6080604052600436106102815760003560e01c80638cc4de191161014f578063c6682862116100c1578063e222c7f91161007a578063e222c7f9146109c9578063e33b7de3146109e0578063e985e9c514610a0b578063ebf0c71714610a48578063f2c4ce1e14610a73578063f2fde38b14610a9c576102c8565b8063c668286214610893578063c87b56dd146108be578063ce7c2ac2146108fb578063d5abeb0114610938578063d79779b214610963578063da3ef23f146109a0576102c8565b8063a22cb46511610113578063a22cb465146107cc578063a45063c0146107f5578063a475b5dd14610820578063b3ab66b014610837578063b88d4fde14610853578063c4ae31681461087c576102c8565b80638cc4de19146106e05780638da5cb5b1461071d578063954dc3e31461074857806395d89b41146107645780639852595c1461078f576102c8565b8063406072a9116101f35780636352211e116101ac5780636352211e146105be5780636c0360eb146105fb57806370a0823114610626578063715018a6146106635780637cb647591461067a5780638b83209b146106a3576102c8565b8063406072a9146104b057806342842e0e146104ed57806348b7504414610516578063518302271461053f57806355f804b31461056a5780635c975abb14610593576102c8565b80631798d58b116102455780631798d58b146103c657806318160ddd146103f1578063191655871461041c57806323b872dd14610445578063343937431461046e5780633a98ef3914610485576102c8565b806301ffc9a7146102cd57806306fdde031461030a578063081812fc14610335578063081c8c4414610372578063095ea7b31461039d576102c8565b366102c8577f6ef95f06320e7a25a04a175ca677b7052bdd97131872c2192525a629f51be7706102af610ac5565b346040516102be929190613cf6565b60405180910390a1005b600080fd5b3480156102d957600080fd5b506102f460048036038101906102ef9190613d8b565b610acd565b6040516103019190613dd3565b60405180910390f35b34801561031657600080fd5b5061031f610baf565b60405161032c9190613e87565b60405180910390f35b34801561034157600080fd5b5061035c60048036038101906103579190613ed5565b610c41565b6040516103699190613f02565b60405180910390f35b34801561037e57600080fd5b50610387610cc6565b6040516103949190613e87565b60405180910390f35b3480156103a957600080fd5b506103c460048036038101906103bf9190613f49565b610d54565b005b3480156103d257600080fd5b506103db610e6c565b6040516103e89190613dd3565b60405180910390f35b3480156103fd57600080fd5b50610406610e7f565b6040516104139190613f89565b60405180910390f35b34801561042857600080fd5b50610443600480360381019061043e9190613fe2565b610e90565b005b34801561045157600080fd5b5061046c6004803603810190610467919061400f565b61103b565b005b34801561047a57600080fd5b5061048361109b565b005b34801561049157600080fd5b5061049a611143565b6040516104a79190613f89565b60405180910390f35b3480156104bc57600080fd5b506104d760048036038101906104d291906140a0565b61114d565b6040516104e49190613f89565b60405180910390f35b3480156104f957600080fd5b50610514600480360381019061050f919061400f565b6111d4565b005b34801561052257600080fd5b5061053d600480360381019061053891906140a0565b6111f4565b005b34801561054b57600080fd5b506105546114bc565b6040516105619190613dd3565b60405180910390f35b34801561057657600080fd5b50610591600480360381019061058c9190614215565b6114cf565b005b34801561059f57600080fd5b506105a8611565565b6040516105b59190613dd3565b60405180910390f35b3480156105ca57600080fd5b506105e560048036038101906105e09190613ed5565b611578565b6040516105f29190613f02565b60405180910390f35b34801561060757600080fd5b5061061061162a565b60405161061d9190613e87565b60405180910390f35b34801561063257600080fd5b5061064d6004803603810190610648919061425e565b6116b8565b60405161065a9190613f89565b60405180910390f35b34801561066f57600080fd5b50610678611770565b005b34801561068657600080fd5b506106a1600480360381019061069c91906142c1565b6117f8565b005b3480156106af57600080fd5b506106ca60048036038101906106c59190613ed5565b61187e565b6040516106d79190613f02565b60405180910390f35b3480156106ec57600080fd5b506107076004803603810190610702919061425e565b6118c6565b6040516107149190613f89565b60405180910390f35b34801561072957600080fd5b506107326118de565b60405161073f9190613f02565b60405180910390f35b610762600480360381019061075d919061434e565b611908565b005b34801561077057600080fd5b50610779611d47565b6040516107869190613e87565b60405180910390f35b34801561079b57600080fd5b506107b660048036038101906107b1919061425e565b611dd9565b6040516107c39190613f89565b60405180910390f35b3480156107d857600080fd5b506107f360048036038101906107ee91906143ee565b611e22565b005b34801561080157600080fd5b5061080a611e38565b6040516108179190613dd3565b60405180910390f35b34801561082c57600080fd5b50610835611e4b565b005b610851600480360381019061084c9190613ed5565b611ee4565b005b34801561085f57600080fd5b5061087a600480360381019061087591906144cf565b61210d565b005b34801561088857600080fd5b5061089161216f565b005b34801561089f57600080fd5b506108a8612217565b6040516108b59190613e87565b60405180910390f35b3480156108ca57600080fd5b506108e560048036038101906108e09190613ed5565b6122a5565b6040516108f29190613e87565b60405180910390f35b34801561090757600080fd5b50610922600480360381019061091d919061425e565b6123fe565b60405161092f9190613f89565b60405180910390f35b34801561094457600080fd5b5061094d612447565b60405161095a9190613f89565b60405180910390f35b34801561096f57600080fd5b5061098a60048036038101906109859190614552565b61244d565b6040516109979190613f89565b60405180910390f35b3480156109ac57600080fd5b506109c760048036038101906109c29190614215565b612496565b005b3480156109d557600080fd5b506109de61252c565b005b3480156109ec57600080fd5b506109f56125d4565b604051610a029190613f89565b60405180910390f35b348015610a1757600080fd5b50610a326004803603810190610a2d919061457f565b6125de565b604051610a3f9190613dd3565b60405180910390f35b348015610a5457600080fd5b50610a5d6126e0565b604051610a6a91906145ce565b60405180910390f35b348015610a7f57600080fd5b50610a9a6004803603810190610a959190614215565b6126e6565b005b348015610aa857600080fd5b50610ac36004803603810190610abe919061425e565b61277c565b005b600033905090565b60007f80ac58cd000000000000000000000000000000000000000000000000000000007bffffffffffffffffffffffffffffffffffffffffffffffffffffffff1916827bffffffffffffffffffffffffffffffffffffffffffffffffffffffff19161480610b9857507f5b5e139f000000000000000000000000000000000000000000000000000000007bffffffffffffffffffffffffffffffffffffffffffffffffffffffff1916827bffffffffffffffffffffffffffffffffffffffffffffffffffffffff1916145b80610ba85750610ba782612874565b5b9050919050565b606060008054610bbe90614618565b80601f0160208091040260200160405190810160405280929190818152602001828054610bea90614618565b8015610c375780601f10610c0c57610100808354040283529160200191610c37565b820191906000526020600020905b815481529060010190602001808311610c1a57829003601f168201915b5050505050905090565b6000610c4c826128de565b610c8b576040517f08c379a0000000000000000000000000000000000000000000000000000000008152600401610c82906146bc565b60405180910390fd5b6004600083815260200190815260200160002060009054906101000a900473ffffffffffffffffffffffffffffffffffffffff169050919050565b60138054610cd390614618565b80601f0160208091040260200160405190810160405280929190818152602001828054610cff90614618565b8015610d4c5780601f10610d2157610100808354040283529160200191610d4c565b820191906000526020600020905b815481529060010190602001808311610d2f57829003601f168201915b505050505081565b6000610d5f82611578565b90508073ffffffffffffffffffffffffffffffffffffffff168373ffffffffffffffffffffffffffffffffffffffff161415610dd0576040517f08c379a0000000000000000000000000000000000000000000000000000000008152600401610dc79061474e565b60405180910390fd5b8073ffffffffffffffffffffffffffffffffffffffff16610def610ac5565b73ffffffffffffffffffffffffffffffffffffffff161480610e1e5750610e1d81610e18610ac5565b6125de565b5b610e5d576040517f08c379a0000000000000000000000000000000000000000000000000000000008152600401610e54906147e0565b60405180910390fd5b610e67838361294a565b505050565b601560029054906101000a900460ff1681565b6000610e8b6019612a03565b905090565b6000600a60008373ffffffffffffffffffffffffffffffffffffffff1673ffffffffffffffffffffffffffffffffffffffff1681526020019081526020016000205411610f12576040517f08c379a0000000000000000000000000000000000000000000000000000000008152600401610f0990614872565b60405180910390fd5b6000610f1c6125d4565b47610f2791906148c1565b90506000610f3e8383610f3986611dd9565b612a11565b90506000811415610f84576040517f08c379a0000000000000000000000000000000000000000000000000000000008152600401610f7b90614989565b60405180910390fd5b80600b60008573ffffffffffffffffffffffffffffffffffffffff1673ffffffffffffffffffffffffffffffffffffffff1681526020019081526020016000206000828254610fd391906148c1565b925050819055508060096000828254610fec91906148c1565b92505081905550610ffd8382612a7f565b7fdf20fd1e76bc69d672e4814fafb2c449bba3a5369d8359adf9e05e6fde87b056838260405161102e929190614a08565b60405180910390a1505050565b61104c611046610ac5565b82612b73565b61108b576040517f08c379a000000000000000000000000000000000000000000000000000000000815260040161108290614aa3565b60405180910390fd5b611096838383612c51565b505050565b6110a3610ac5565b73ffffffffffffffffffffffffffffffffffffffff166110c16118de565b73ffffffffffffffffffffffffffffffffffffffff1614611117576040517f08c379a000000000000000000000000000000000000000000000000000000000815260040161110e90614b0f565b60405180910390fd5b601560029054906101000a900460ff1615601560026101000a81548160ff021916908315150217905550565b6000600854905090565b6000600e60008473ffffffffffffffffffffffffffffffffffffffff1673ffffffffffffffffffffffffffffffffffffffff16815260200190815260200160002060008373ffffffffffffffffffffffffffffffffffffffff1673ffffffffffffffffffffffffffffffffffffffff16815260200190815260200160002054905092915050565b6111ef8383836040518060200160405280600081525061210d565b505050565b6000600a60008373ffffffffffffffffffffffffffffffffffffffff1673ffffffffffffffffffffffffffffffffffffffff1681526020019081526020016000205411611276576040517f08c379a000000000000000000000000000000000000000000000000000000000815260040161126d90614872565b60405180910390fd5b60006112818361244d565b8373ffffffffffffffffffffffffffffffffffffffff166370a08231306040518263ffffffff1660e01b81526004016112ba9190613f02565b60206040518083038186803b1580156112d257600080fd5b505afa1580156112e6573d6000803e3d6000fd5b505050506040513d601f19601f8201168201806040525081019061130a9190614b44565b61131491906148c1565b9050600061132c8383611327878761114d565b612a11565b90506000811415611372576040517f08c379a000000000000000000000000000000000000000000000000000000000815260040161136990614989565b60405180910390fd5b80600e60008673ffffffffffffffffffffffffffffffffffffffff1673ffffffffffffffffffffffffffffffffffffffff16815260200190815260200160002060008573ffffffffffffffffffffffffffffffffffffffff1673ffffffffffffffffffffffffffffffffffffffff16815260200190815260200160002060008282546113fe91906148c1565b9250508190555080600d60008673ffffffffffffffffffffffffffffffffffffffff1673ffffffffffffffffffffffffffffffffffffffff168152602001908152602001600020600082825461145491906148c1565b92505081905550611466848483612eb8565b8373ffffffffffffffffffffffffffffffffffffffff167f3be5b7a71e84ed12875d241991c70855ac5817d847039e17a9d895c1ceb0f18a84836040516114ae929190613cf6565b60405180910390a250505050565b601560019054906101000a900460ff1681565b6114d7610ac5565b73ffffffffffffffffffffffffffffffffffffffff166114f56118de565b73ffffffffffffffffffffffffffffffffffffffff161461154b576040517f08c379a000000000000000000000000000000000000000000000000000000000815260040161154290614b0f565b60405180910390fd5b8060129080519060200190611561929190613bf9565b5050565b601560009054906101000a900460ff1681565b6000806002600084815260200190815260200160002060009054906101000a900473ffffffffffffffffffffffffffffffffffffffff169050600073ffffffffffffffffffffffffffffffffffffffff168173ffffffffffffffffffffffffffffffffffffffff161415611621576040517f08c379a000000000000000000000000000000000000000000000000000000000815260040161161890614be3565b60405180910390fd5b80915050919050565b6012805461163790614618565b80601f016020809104026020016040519081016040528092919081815260200182805461166390614618565b80156116b05780601f10611685576101008083540402835291602001916116b0565b820191906000526020600020905b81548152906001019060200180831161169357829003601f168201915b505050505081565b60008073ffffffffffffffffffffffffffffffffffffffff168273ffffffffffffffffffffffffffffffffffffffff161415611729576040517f08c379a000000000000000000000000000000000000000000000000000000000815260040161172090614c75565b60405180910390fd5b600360008373ffffffffffffffffffffffffffffffffffffffff1673ffffffffffffffffffffffffffffffffffffffff168152602001908152602001600020549050919050565b611778610ac5565b73ffffffffffffffffffffffffffffffffffffffff166117966118de565b73ffffffffffffffffffffffffffffffffffffffff16146117ec576040517f08c379a00000000000000000000000000000000000000000000000000000000081526004016117e390614b0f565b60405180910390fd5b6117f66000612f3e565b565b611800610ac5565b73ffffffffffffffffffffffffffffffffffffffff1661181e6118de565b73ffffffffffffffffffffffffffffffffffffffff1614611874576040517f08c379a000000000000000000000000000000000000000000000000000000000815260040161186b90614b0f565b60405180910390fd5b80600f8190555050565b6000600c828154811061189457611893614c95565b5b9060005260206000200160009054906101000a900473ffffffffffffffffffffffffffffffffffffffff169050919050565b60176020528060005260406000206000915090505481565b6000600660009054906101000a900473ffffffffffffffffffffffffffffffffffffffff16905090565b818160011515611982838380806020026020016040519081016040528093929190818152602001838360200280828437600081840152601f19601f82011690508083019250505050505050600f54336040516020016119679190614d0c565b60405160208183030381529060405280519060200120613004565b1515146119c4576040517f08c379a00000000000000000000000000000000000000000000000000000000081526004016119bb90614d73565b60405180910390fd5b3273ffffffffffffffffffffffffffffffffffffffff163373ffffffffffffffffffffffffffffffffffffffff1614611a32576040517f08c379a0000000000000000000000000000000000000000000000000000000008152600401611a2990614d73565b60405180910390fd5b8573ffffffffffffffffffffffffffffffffffffffff163373ffffffffffffffffffffffffffffffffffffffff1614611aa0576040517f08c379a0000000000000000000000000000000000000000000000000000000008152600401611a9790614ddf565b60405180910390fd5b601560029054906101000a900460ff16611aef576040517f08c379a0000000000000000000000000000000000000000000000000000000008152600401611ae690614e4b565b60405180910390fd5b601560009054906101000a900460ff1615611b3f576040517f08c379a0000000000000000000000000000000000000000000000000000000008152600401611b3690614edd565b60405180910390fd5b601654851115611b84576040517f08c379a0000000000000000000000000000000000000000000000000000000008152600401611b7b90614f6f565b60405180910390fd5b60165485601760003373ffffffffffffffffffffffffffffffffffffffff1673ffffffffffffffffffffffffffffffffffffffff16815260200190815260200160002054611bd291906148c1565b1115611c13576040517f08c379a0000000000000000000000000000000000000000000000000000000008152600401611c0a90614f6f565b60405180910390fd5b6000611c1f6019612a03565b90506011548682611c3091906148c1565b1115611c71576040517f08c379a0000000000000000000000000000000000000000000000000000000008152600401611c6890615001565b60405180910390fd5b3486601854611c809190615021565b1115611cc1576040517f08c379a0000000000000000000000000000000000000000000000000000000008152600401611cb8906150ed565b60405180910390fd5b85601760003373ffffffffffffffffffffffffffffffffffffffff1673ffffffffffffffffffffffffffffffffffffffff1681526020019081526020016000206000828254611d1091906148c1565b9250508190555060005b86811015611d3d57611d2a61301b565b8080611d359061510d565b915050611d1a565b5050505050505050565b606060018054611d5690614618565b80601f0160208091040260200160405190810160405280929190818152602001828054611d8290614618565b8015611dcf5780601f10611da457610100808354040283529160200191611dcf565b820191906000526020600020905b815481529060010190602001808311611db257829003601f168201915b5050505050905090565b6000600b60008373ffffffffffffffffffffffffffffffffffffffff1673ffffffffffffffffffffffffffffffffffffffff168152602001908152602001600020549050919050565b611e34611e2d610ac5565b8383613096565b5050565b601560039054906101000a900460ff1681565b611e53610ac5565b73ffffffffffffffffffffffffffffffffffffffff16611e716118de565b73ffffffffffffffffffffffffffffffffffffffff1614611ec7576040517f08c379a0000000000000000000000000000000000000000000000000000000008152600401611ebe90614b0f565b60405180910390fd5b6001601560016101000a81548160ff021916908315150217905550565b3273ffffffffffffffffffffffffffffffffffffffff163373ffffffffffffffffffffffffffffffffffffffff1614611f52576040517f08c379a0000000000000000000000000000000000000000000000000000000008152600401611f4990614d73565b60405180910390fd5b601560039054906101000a900460ff16611fa1576040517f08c379a0000000000000000000000000000000000000000000000000000000008152600401611f98906151c8565b60405180910390fd5b601560009054906101000a900460ff1615611ff1576040517f08c379a0000000000000000000000000000000000000000000000000000000008152600401611fe890614edd565b60405180910390fd5b60008111612034576040517f08c379a000000000000000000000000000000000000000000000000000000000815260040161202b90615234565b60405180910390fd5b60006120406019612a03565b9050601154828261205191906148c1565b1115612092576040517f08c379a0000000000000000000000000000000000000000000000000000000008152600401612089906152c6565b60405180910390fd5b34826018546120a19190615021565b11156120e2576040517f08c379a00000000000000000000000000000000000000000000000000000000081526004016120d9906150ed565b60405180910390fd5b60005b82811015612108576120f561301b565b80806121009061510d565b9150506120e5565b505050565b61211e612118610ac5565b83612b73565b61215d576040517f08c379a000000000000000000000000000000000000000000000000000000000815260040161215490614aa3565b60405180910390fd5b61216984848484613203565b50505050565b612177610ac5565b73ffffffffffffffffffffffffffffffffffffffff166121956118de565b73ffffffffffffffffffffffffffffffffffffffff16146121eb576040517f08c379a00000000000000000000000000000000000000000000000000000000081526004016121e290614b0f565b60405180910390fd5b601560009054906101000a900460ff1615601560006101000a81548160ff021916908315150217905550565b6014805461222490614618565b80601f016020809104026020016040519081016040528092919081815260200182805461225090614618565b801561229d5780601f106122725761010080835404028352916020019161229d565b820191906000526020600020905b81548152906001019060200180831161228057829003601f168201915b505050505081565b60606122b0826128de565b6122ef576040517f08c379a00000000000000000000000000000000000000000000000000000000081526004016122e690615358565b60405180910390fd5b60001515601560019054906101000a900460ff161515141561239d576013805461231890614618565b80601f016020809104026020016040519081016040528092919081815260200182805461234490614618565b80156123915780601f1061236657610100808354040283529160200191612391565b820191906000526020600020905b81548152906001019060200180831161237457829003601f168201915b505050505090506123f9565b60006123a761325f565b905060008151116123c757604051806020016040528060008152506123f5565b806123d1846132f1565b60146040516020016123e593929190615448565b6040516020818303038152906040525b9150505b919050565b6000600a60008373ffffffffffffffffffffffffffffffffffffffff1673ffffffffffffffffffffffffffffffffffffffff168152602001908152602001600020549050919050565b60115481565b6000600d60008373ffffffffffffffffffffffffffffffffffffffff1673ffffffffffffffffffffffffffffffffffffffff168152602001908152602001600020549050919050565b61249e610ac5565b73ffffffffffffffffffffffffffffffffffffffff166124bc6118de565b73ffffffffffffffffffffffffffffffffffffffff1614612512576040517f08c379a000000000000000000000000000000000000000000000000000000000815260040161250990614b0f565b60405180910390fd5b8060149080519060200190612528929190613bf9565b5050565b612534610ac5565b73ffffffffffffffffffffffffffffffffffffffff166125526118de565b73ffffffffffffffffffffffffffffffffffffffff16146125a8576040517f08c379a000000000000000000000000000000000000000000000000000000000815260040161259f90614b0f565b60405180910390fd5b601560039054906101000a900460ff1615601560036101000a81548160ff021916908315150217905550565b6000600954905090565b600080601060009054906101000a900473ffffffffffffffffffffffffffffffffffffffff1690508273ffffffffffffffffffffffffffffffffffffffff168173ffffffffffffffffffffffffffffffffffffffff1663c4552791866040518263ffffffff1660e01b81526004016126569190613f02565b60206040518083038186803b15801561266e57600080fd5b505afa158015612682573d6000803e3d6000fd5b505050506040513d601f19601f820116820180604052508101906126a691906154b7565b73ffffffffffffffffffffffffffffffffffffffff1614156126cc5760019150506126da565b6126d68484613452565b9150505b92915050565b600f5481565b6126ee610ac5565b73ffffffffffffffffffffffffffffffffffffffff1661270c6118de565b73ffffffffffffffffffffffffffffffffffffffff1614612762576040517f08c379a000000000000000000000000000000000000000000000000000000000815260040161275990614b0f565b60405180910390fd5b8060139080519060200190612778929190613bf9565b5050565b612784610ac5565b73ffffffffffffffffffffffffffffffffffffffff166127a26118de565b73ffffffffffffffffffffffffffffffffffffffff16146127f8576040517f08c379a00000000000000000000000000000000000000000000000000000000081526004016127ef90614b0f565b60405180910390fd5b600073ffffffffffffffffffffffffffffffffffffffff168173ffffffffffffffffffffffffffffffffffffffff161415612868576040517f08c379a000000000000000000000000000000000000000000000000000000000815260040161285f90615556565b60405180910390fd5b61287181612f3e565b50565b60007f01ffc9a7000000000000000000000000000000000000000000000000000000007bffffffffffffffffffffffffffffffffffffffffffffffffffffffff1916827bffffffffffffffffffffffffffffffffffffffffffffffffffffffff1916149050919050565b60008073ffffffffffffffffffffffffffffffffffffffff166002600084815260200190815260200160002060009054906101000a900473ffffffffffffffffffffffffffffffffffffffff1673ffffffffffffffffffffffffffffffffffffffff1614159050919050565b816004600083815260200190815260200160002060006101000a81548173ffffffffffffffffffffffffffffffffffffffff021916908373ffffffffffffffffffffffffffffffffffffffff160217905550808273ffffffffffffffffffffffffffffffffffffffff166129bd83611578565b73ffffffffffffffffffffffffffffffffffffffff167f8c5be1e5ebec7d5bd14f71427d1e84f3dd0314c0f7b2291e5b200ac8c7c3b92560405160405180910390a45050565b600081600001549050919050565b600081600854600a60008773ffffffffffffffffffffffffffffffffffffffff1673ffffffffffffffffffffffffffffffffffffffff1681526020019081526020016000205485612a629190615021565b612a6c91906155a5565b612a7691906155d6565b90509392505050565b80471015612ac2576040517f08c379a0000000000000000000000000000000000000000000000000000000008152600401612ab990615656565b60405180910390fd5b60008273ffffffffffffffffffffffffffffffffffffffff1682604051612ae8906156a7565b60006040518083038185875af1925050503d8060008114612b25576040519150601f19603f3d011682016040523d82523d6000602084013e612b2a565b606091505b5050905080612b6e576040517f08c379a0000000000000000000000000000000000000000000000000000000008152600401612b659061572e565b60405180910390fd5b505050565b6000612b7e826128de565b612bbd576040517f08c379a0000000000000000000000000000000000000000000000000000000008152600401612bb4906157c0565b60405180910390fd5b6000612bc883611578565b90508073ffffffffffffffffffffffffffffffffffffffff168473ffffffffffffffffffffffffffffffffffffffff161480612c3757508373ffffffffffffffffffffffffffffffffffffffff16612c1f84610c41565b73ffffffffffffffffffffffffffffffffffffffff16145b80612c485750612c4781856125de565b5b91505092915050565b8273ffffffffffffffffffffffffffffffffffffffff16612c7182611578565b73ffffffffffffffffffffffffffffffffffffffff1614612cc7576040517f08c379a0000000000000000000000000000000000000000000000000000000008152600401612cbe90615852565b60405180910390fd5b600073ffffffffffffffffffffffffffffffffffffffff168273ffffffffffffffffffffffffffffffffffffffff161415612d37576040517f08c379a0000000000000000000000000000000000000000000000000000000008152600401612d2e906158e4565b60405180910390fd5b612d428383836134e6565b612d4d60008261294a565b6001600360008573ffffffffffffffffffffffffffffffffffffffff1673ffffffffffffffffffffffffffffffffffffffff1681526020019081526020016000206000828254612d9d91906155d6565b925050819055506001600360008473ffffffffffffffffffffffffffffffffffffffff1673ffffffffffffffffffffffffffffffffffffffff1681526020019081526020016000206000828254612df491906148c1565b92505081905550816002600083815260200190815260200160002060006101000a81548173ffffffffffffffffffffffffffffffffffffffff021916908373ffffffffffffffffffffffffffffffffffffffff160217905550808273ffffffffffffffffffffffffffffffffffffffff168473ffffffffffffffffffffffffffffffffffffffff167fddf252ad1be2c89b69c2b068fc378daa952ba7f163c4a11628f55a4df523b3ef60405160405180910390a4612eb38383836134eb565b505050565b612f398363a9059cbb60e01b8484604051602401612ed7929190613cf6565b604051602081830303815290604052907bffffffffffffffffffffffffffffffffffffffffffffffffffffffff19166020820180517bffffffffffffffffffffffffffffffffffffffffffffffffffffffff83818316178352505050506134f0565b505050565b6000600660009054906101000a900473ffffffffffffffffffffffffffffffffffffffff16905081600660006101000a81548173ffffffffffffffffffffffffffffffffffffffff021916908373ffffffffffffffffffffffffffffffffffffffff1602179055508173ffffffffffffffffffffffffffffffffffffffff168173ffffffffffffffffffffffffffffffffffffffff167f8be0079c531659141344cd1fd0a4f28419497f9722a3daafe3b4186f6b6457e060405160405180910390a35050565b60008261301185846135b7565b1490509392505050565b60026007541415613061576040517f08c379a000000000000000000000000000000000000000000000000000000000815260040161305890615950565b60405180910390fd5b6002600781905550613073601961362c565b600061307f6019612a03565b905061308b3382613642565b506001600781905550565b8173ffffffffffffffffffffffffffffffffffffffff168373ffffffffffffffffffffffffffffffffffffffff161415613105576040517f08c379a00000000000000000000000000000000000000000000000000000000081526004016130fc906159bc565b60405180910390fd5b80600560008573ffffffffffffffffffffffffffffffffffffffff1673ffffffffffffffffffffffffffffffffffffffff16815260200190815260200160002060008473ffffffffffffffffffffffffffffffffffffffff1673ffffffffffffffffffffffffffffffffffffffff16815260200190815260200160002060006101000a81548160ff0219169083151502179055508173ffffffffffffffffffffffffffffffffffffffff168373ffffffffffffffffffffffffffffffffffffffff167f17307eab39ab6107e8899845ad3d59bd9653f200f220920489ca2b5937696c31836040516131f69190613dd3565b60405180910390a3505050565b61320e848484612c51565b61321a84848484613660565b613259576040517f08c379a000000000000000000000000000000000000000000000000000000000815260040161325090615a4e565b60405180910390fd5b50505050565b60606012805461326e90614618565b80601f016020809104026020016040519081016040528092919081815260200182805461329a90614618565b80156132e75780601f106132bc576101008083540402835291602001916132e7565b820191906000526020600020905b8154815290600101906020018083116132ca57829003601f168201915b5050505050905090565b60606000821415613339576040518060400160405280600181526020017f3000000000000000000000000000000000000000000000000000000000000000815250905061344d565b600082905060005b6000821461336b5780806133549061510d565b915050600a8261336491906155a5565b9150613341565b60008167ffffffffffffffff811115613387576133866140ea565b5b6040519080825280601f01601f1916602001820160405280156133b95781602001600182028036833780820191505090505b5090505b60008514613446576001826133d291906155d6565b9150600a856133e19190615a6e565b60306133ed91906148c1565b60f81b81838151811061340357613402614c95565b5b60200101907effffffffffffffffffffffffffffffffffffffffffffffffffffffffffffff1916908160001a905350600a8561343f91906155a5565b94506133bd565b8093505050505b919050565b6000600560008473ffffffffffffffffffffffffffffffffffffffff1673ffffffffffffffffffffffffffffffffffffffff16815260200190815260200160002060008373ffffffffffffffffffffffffffffffffffffffff1673ffffffffffffffffffffffffffffffffffffffff16815260200190815260200160002060009054906101000a900460ff16905092915050565b505050565b505050565b6000613552826040518060400160405280602081526020017f5361666545524332303a206c6f772d6c6576656c2063616c6c206661696c65648152508573ffffffffffffffffffffffffffffffffffffffff166137f79092919063ffffffff16565b90506000815111156135b257808060200190518101906135729190615ab4565b6135b1576040517f08c379a00000000000000000000000000000000000000000000000000000000081526004016135a890615b53565b60405180910390fd5b5b505050565b60008082905060005b84518110156136215760008582815181106135de576135dd614c95565b5b60200260200101519050808311613600576135f9838261380f565b925061360d565b61360a818461380f565b92505b5080806136199061510d565b9150506135c0565b508091505092915050565b6001816000016000828254019250508190555050565b61365c828260405180602001604052806000815250613826565b5050565b60006136818473ffffffffffffffffffffffffffffffffffffffff16613881565b156137ea578373ffffffffffffffffffffffffffffffffffffffff1663150b7a026136aa610ac5565b8786866040518563ffffffff1660e01b81526004016136cc9493929190615bc8565b602060405180830381600087803b1580156136e657600080fd5b505af192505050801561371757506040513d601f19601f820116820180604052508101906137149190615c29565b60015b61379a573d8060008114613747576040519150601f19603f3d011682016040523d82523d6000602084013e61374c565b606091505b50600081511415613792576040517f08c379a000000000000000000000000000000000000000000000000000000000815260040161378990615a4e565b60405180910390fd5b805181602001fd5b63150b7a0260e01b7bffffffffffffffffffffffffffffffffffffffffffffffffffffffff1916817bffffffffffffffffffffffffffffffffffffffffffffffffffffffff1916149150506137ef565b600190505b949350505050565b606061380684846000856138a4565b90509392505050565b600082600052816020526040600020905092915050565b61383083836139b8565b61383d6000848484613660565b61387c576040517f08c379a000000000000000000000000000000000000000000000000000000000815260040161387390615a4e565b60405180910390fd5b505050565b6000808273ffffffffffffffffffffffffffffffffffffffff163b119050919050565b6060824710156138e9576040517f08c379a00000000000000000000000000000000000000000000000000000000081526004016138e090615cc8565b60405180910390fd5b6138f285613881565b613931576040517f08c379a000000000000000000000000000000000000000000000000000000000815260040161392890615d34565b60405180910390fd5b6000808673ffffffffffffffffffffffffffffffffffffffff16858760405161395a9190615d85565b60006040518083038185875af1925050503d8060008114613997576040519150601f19603f3d011682016040523d82523d6000602084013e61399c565b606091505b50915091506139ac828286613b92565b92505050949350505050565b600073ffffffffffffffffffffffffffffffffffffffff168273ffffffffffffffffffffffffffffffffffffffff161415613a28576040517f08c379a0000000000000000000000000000000000000000000000000000000008152600401613a1f90615de8565b60405180910390fd5b613a31816128de565b15613a71576040517f08c379a0000000000000000000000000000000000000000000000000000000008152600401613a6890615e54565b60405180910390fd5b613a7d600083836134e6565b6001600360008473ffffffffffffffffffffffffffffffffffffffff1673ffffffffffffffffffffffffffffffffffffffff1681526020019081526020016000206000828254613acd91906148c1565b92505081905550816002600083815260200190815260200160002060006101000a81548173ffffffffffffffffffffffffffffffffffffffff021916908373ffffffffffffffffffffffffffffffffffffffff160217905550808273ffffffffffffffffffffffffffffffffffffffff16600073ffffffffffffffffffffffffffffffffffffffff167fddf252ad1be2c89b69c2b068fc378daa952ba7f163c4a11628f55a4df523b3ef60405160405180910390a4613b8e600083836134eb565b5050565b60608315613ba257829050613bf2565b600083511115613bb55782518084602001fd5b816040517f08c379a0000000000000000000000000000000000000000000000000000000008152600401613be99190613e87565b60405180910390fd5b9392505050565b828054613c0590614618565b90600052602060002090601f016020900481019282613c275760008555613c6e565b82601f10613c4057805160ff1916838001178555613c6e565b82800160010185558215613c6e579182015b82811115613c6d578251825591602001919060010190613c52565b5b509050613c7b9190613c7f565b5090565b5b80821115613c98576000816000905550600101613c80565b5090565b600073ffffffffffffffffffffffffffffffffffffffff82169050919050565b6000613cc782613c9c565b9050919050565b613cd781613cbc565b82525050565b6000819050919050565b613cf081613cdd565b82525050565b6000604082019050613d0b6000830185613cce565b613d186020830184613ce7565b9392505050565b6000604051905090565b600080fd5b600080fd5b60007fffffffff0000000000000000000000000000000000000000000000000000000082169050919050565b613d6881613d33565b8114613d7357600080fd5b50565b600081359050613d8581613d5f565b92915050565b600060208284031215613da157613da0613d29565b5b6000613daf84828501613d76565b91505092915050565b60008115159050919050565b613dcd81613db8565b82525050565b6000602082019050613de86000830184613dc4565b92915050565b600081519050919050565b600082825260208201905092915050565b60005b83811015613e28578082015181840152602081019050613e0d565b83811115613e37576000848401525b50505050565b6000601f19601f8301169050919050565b6000613e5982613dee565b613e638185613df9565b9350613e73818560208601613e0a565b613e7c81613e3d565b840191505092915050565b60006020820190508181036000830152613ea18184613e4e565b905092915050565b613eb281613cdd565b8114613ebd57600080fd5b50565b600081359050613ecf81613ea9565b92915050565b600060208284031215613eeb57613eea613d29565b5b6000613ef984828501613ec0565b91505092915050565b6000602082019050613f176000830184613cce565b92915050565b613f2681613cbc565b8114613f3157600080fd5b50565b600081359050613f4381613f1d565b92915050565b60008060408385031215613f6057613f5f613d29565b5b6000613f6e85828601613f34565b9250506020613f7f85828601613ec0565b9150509250929050565b6000602082019050613f9e6000830184613ce7565b92915050565b6000613faf82613c9c565b9050919050565b613fbf81613fa4565b8114613fca57600080fd5b50565b600081359050613fdc81613fb6565b92915050565b600060208284031215613ff857613ff7613d29565b5b600061400684828501613fcd565b91505092915050565b60008060006060848603121561402857614027613d29565b5b600061403686828701613f34565b935050602061404786828701613f34565b925050604061405886828701613ec0565b9150509250925092565b600061406d82613cbc565b9050919050565b61407d81614062565b811461408857600080fd5b50565b60008135905061409a81614074565b92915050565b600080604083850312156140b7576140b6613d29565b5b60006140c58582860161408b565b92505060206140d685828601613f34565b9150509250929050565b600080fd5b600080fd5b7f4e487b7100000000000000000000000000000000000000000000000000000000600052604160045260246000fd5b61412282613e3d565b810181811067ffffffffffffffff82111715614141576141406140ea565b5b80604052505050565b6000614154613d1f565b90506141608282614119565b919050565b600067ffffffffffffffff8211156141805761417f6140ea565b5b61418982613e3d565b9050602081019050919050565b82818337600083830152505050565b60006141b86141b384614165565b61414a565b9050828152602081018484840111156141d4576141d36140e5565b5b6141df848285614196565b509392505050565b600082601f8301126141fc576141fb6140e0565b5b813561420c8482602086016141a5565b91505092915050565b60006020828403121561422b5761422a613d29565b5b600082013567ffffffffffffffff81111561424957614248613d2e565b5b614255848285016141e7565b91505092915050565b60006020828403121561427457614273613d29565b5b600061428284828501613f34565b91505092915050565b6000819050919050565b61429e8161428b565b81146142a957600080fd5b50565b6000813590506142bb81614295565b92915050565b6000602082840312156142d7576142d6613d29565b5b60006142e5848285016142ac565b91505092915050565b600080fd5b600080fd5b60008083601f84011261430e5761430d6140e0565b5b8235905067ffffffffffffffff81111561432b5761432a6142ee565b5b602083019150836020820283011115614347576143466142f3565b5b9250929050565b6000806000806060858703121561436857614367613d29565b5b600061437687828801613f34565b945050602061438787828801613ec0565b935050604085013567ffffffffffffffff8111156143a8576143a7613d2e565b5b6143b4878288016142f8565b925092505092959194509250565b6143cb81613db8565b81146143d657600080fd5b50565b6000813590506143e8816143c2565b92915050565b6000806040838503121561440557614404613d29565b5b600061441385828601613f34565b9250506020614424858286016143d9565b9150509250929050565b600067ffffffffffffffff821115614449576144486140ea565b5b61445282613e3d565b9050602081019050919050565b600061447261446d8461442e565b61414a565b90508281526020810184848401111561448e5761448d6140e5565b5b614499848285614196565b509392505050565b600082601f8301126144b6576144b56140e0565b5b81356144c684826020860161445f565b91505092915050565b600080600080608085870312156144e9576144e8613d29565b5b60006144f787828801613f34565b945050602061450887828801613f34565b935050604061451987828801613ec0565b925050606085013567ffffffffffffffff81111561453a57614539613d2e565b5b614546878288016144a1565b91505092959194509250565b60006020828403121561456857614567613d29565b5b60006145768482850161408b565b91505092915050565b6000806040838503121561459657614595613d29565b5b60006145a485828601613f34565b92505060206145b585828601613f34565b9150509250929050565b6145c88161428b565b82525050565b60006020820190506145e360008301846145bf565b92915050565b7f4e487b7100000000000000000000000000000000000000000000000000000000600052602260045260246000fd5b6000600282049050600182168061463057607f821691505b60208210811415614644576146436145e9565b5b50919050565b7f4552433732313a20617070726f76656420717565727920666f72206e6f6e657860008201527f697374656e7420746f6b656e0000000000000000000000000000000000000000602082015250565b60006146a6602c83613df9565b91506146b18261464a565b604082019050919050565b600060208201905081810360008301526146d581614699565b9050919050565b7f4552433732313a20617070726f76616c20746f2063757272656e74206f776e6560008201527f7200000000000000000000000000000000000000000000000000000000000000602082015250565b6000614738602183613df9565b9150614743826146dc565b604082019050919050565b600060208201905081810360008301526147678161472b565b9050919050565b7f4552433732313a20617070726f76652063616c6c6572206973206e6f74206f7760008201527f6e6572206e6f7220617070726f76656420666f7220616c6c0000000000000000602082015250565b60006147ca603883613df9565b91506147d58261476e565b604082019050919050565b600060208201905081810360008301526147f9816147bd565b9050919050565b7f5061796d656e7453706c69747465723a206163636f756e7420686173206e6f2060008201527f7368617265730000000000000000000000000000000000000000000000000000602082015250565b600061485c602683613df9565b915061486782614800565b604082019050919050565b6000602082019050818103600083015261488b8161484f565b9050919050565b7f4e487b7100000000000000000000000000000000000000000000000000000000600052601160045260246000fd5b60006148cc82613cdd565b91506148d783613cdd565b9250827fffffffffffffffffffffffffffffffffffffffffffffffffffffffffffffffff0382111561490c5761490b614892565b5b828201905092915050565b7f5061796d656e7453706c69747465723a206163636f756e74206973206e6f742060008201527f647565207061796d656e74000000000000000000000000000000000000000000602082015250565b6000614973602b83613df9565b915061497e82614917565b604082019050919050565b600060208201905081810360008301526149a281614966565b9050919050565b6000819050919050565b60006149ce6149c96149c484613c9c565b6149a9565b613c9c565b9050919050565b60006149e0826149b3565b9050919050565b60006149f2826149d5565b9050919050565b614a02816149e7565b82525050565b6000604082019050614a1d60008301856149f9565b614a2a6020830184613ce7565b9392505050565b7f4552433732313a207472616e736665722063616c6c6572206973206e6f74206f60008201527f776e6572206e6f7220617070726f766564000000000000000000000000000000602082015250565b6000614a8d603183613df9565b9150614a9882614a31565b604082019050919050565b60006020820190508181036000830152614abc81614a80565b9050919050565b7f4f776e61626c653a2063616c6c6572206973206e6f7420746865206f776e6572600082015250565b6000614af9602083613df9565b9150614b0482614ac3565b602082019050919050565b60006020820190508181036000830152614b2881614aec565b9050919050565b600081519050614b3e81613ea9565b92915050565b600060208284031215614b5a57614b59613d29565b5b6000614b6884828501614b2f565b91505092915050565b7f4552433732313a206f776e657220717565727920666f72206e6f6e657869737460008201527f656e7420746f6b656e0000000000000000000000000000000000000000000000602082015250565b6000614bcd602983613df9565b9150614bd882614b71565b604082019050919050565b60006020820190508181036000830152614bfc81614bc0565b9050919050565b7f4552433732313a2062616c616e636520717565727920666f7220746865207a6560008201527f726f206164647265737300000000000000000000000000000000000000000000602082015250565b6000614c5f602a83613df9565b9150614c6a82614c03565b604082019050919050565b60006020820190508181036000830152614c8e81614c52565b9050919050565b7f4e487b7100000000000000000000000000000000000000000000000000000000600052603260045260246000fd5b60008160601b9050919050565b6000614cdc82614cc4565b9050919050565b6000614cee82614cd1565b9050919050565b614d06614d0182613cbc565b614ce3565b82525050565b6000614d188284614cf5565b60148201915081905092915050565b7f4e6f7420616c6c6f776564206f726967696e0000000000000000000000000000600082015250565b6000614d5d601283613df9565b9150614d6882614d27565b602082019050919050565b60006020820190508181036000830152614d8c81614d50565b9050919050565b7f4372656174697665436f64696e673a204e6f7420616c6c6f7765640000000000600082015250565b6000614dc9601b83613df9565b9150614dd482614d93565b602082019050919050565b60006020820190508181036000830152614df881614dbc565b9050919050565b7f4372656174697665436f64696e673a2050726573616c65206973204f46460000600082015250565b6000614e35601e83613df9565b9150614e4082614dff565b602082019050919050565b60006020820190508181036000830152614e6481614e28565b9050919050565b7f4372656174697665436f64696e673a20436f6e7472616374206973207061757360008201527f6564000000000000000000000000000000000000000000000000000000000000602082015250565b6000614ec7602283613df9565b9150614ed282614e6b565b604082019050919050565b60006020820190508181036000830152614ef681614eba565b9050919050565b7f4372656174697665436f64696e673a20596f752063616e2774206d696e74207360008201527f6f206d75636820746f6b656e7300000000000000000000000000000000000000602082015250565b6000614f59602d83613df9565b9150614f6482614efd565b604082019050919050565b60006020820190508181036000830152614f8881614f4c565b9050919050565b7f4372656174697665436f64696e673a206d617820737570706c7920657863656560008201527f6465640000000000000000000000000000000000000000000000000000000000602082015250565b6000614feb602383613df9565b9150614ff682614f8f565b604082019050919050565b6000602082019050818103600083015261501a81614fde565b9050919050565b600061502c82613cdd565b915061503783613cdd565b9250817fffffffffffffffffffffffffffffffffffffffffffffffffffffffffffffffff04831182151516156150705761506f614892565b5b828202905092915050565b7f4372656174697665436f64696e673a204e6f7420656e6f75676820657468657260008201527f732073656e740000000000000000000000000000000000000000000000000000602082015250565b60006150d7602683613df9565b91506150e28261507b565b604082019050919050565b60006020820190508181036000830152615106816150ca565b9050919050565b600061511882613cdd565b91507fffffffffffffffffffffffffffffffffffffffffffffffffffffffffffffffff82141561514b5761514a614892565b5b600182019050919050565b7f4372656174697665436f64696e673a205075626c696353616c65206973204f4660008201527f4600000000000000000000000000000000000000000000000000000000000000602082015250565b60006151b2602183613df9565b91506151bd82615156565b604082019050919050565b600060208201905081810360008301526151e1816151a5565b9050919050565b7f4372656174697665436f64696e673a207a65726f20616d6f756e740000000000600082015250565b600061521e601b83613df9565b9150615229826151e8565b602082019050919050565b6000602082019050818103600083015261524d81615211565b9050919050565b7f4372656174697665436f64696e673a204d617820737570706c7920657863656560008201527f6465640000000000000000000000000000000000000000000000000000000000602082015250565b60006152b0602383613df9565b91506152bb82615254565b604082019050919050565b600060208201905081810360008301526152df816152a3565b9050919050565b7f4552433732314d657461646174613a2055524920717565727920666f72206e6f60008201527f6e6578697374656e7420746f6b656e0000000000000000000000000000000000602082015250565b6000615342602f83613df9565b915061534d826152e6565b604082019050919050565b6000602082019050818103600083015261537181615335565b9050919050565b600081905092915050565b600061538e82613dee565b6153988185615378565b93506153a8818560208601613e0a565b80840191505092915050565b60008190508160005260206000209050919050565b600081546153d681614618565b6153e08186615378565b945060018216600081146153fb576001811461540c5761543f565b60ff1983168652818601935061543f565b615415856153b4565b60005b8381101561543757815481890152600182019150602081019050615418565b838801955050505b50505092915050565b60006154548286615383565b91506154608285615383565b915061546c82846153c9565b9150819050949350505050565b600061548482613cbc565b9050919050565b61549481615479565b811461549f57600080fd5b50565b6000815190506154b18161548b565b92915050565b6000602082840312156154cd576154cc613d29565b5b60006154db848285016154a2565b91505092915050565b7f4f776e61626c653a206e6577206f776e657220697320746865207a65726f206160008201527f6464726573730000000000000000000000000000000000000000000000000000602082015250565b6000615540602683613df9565b915061554b826154e4565b604082019050919050565b6000602082019050818103600083015261556f81615533565b9050919050565b7f4e487b7100000000000000000000000000000000000000000000000000000000600052601260045260246000fd5b60006155b082613cdd565b91506155bb83613cdd565b9250826155cb576155ca615576565b5b828204905092915050565b60006155e182613cdd565b91506155ec83613cdd565b9250828210156155ff576155fe614892565b5b828203905092915050565b7f416464726573733a20696e73756666696369656e742062616c616e6365000000600082015250565b6000615640601d83613df9565b915061564b8261560a565b602082019050919050565b6000602082019050818103600083015261566f81615633565b9050919050565b600081905092915050565b50565b6000615691600083615676565b915061569c82615681565b600082019050919050565b60006156b282615684565b9150819050919050565b7f416464726573733a20756e61626c6520746f2073656e642076616c75652c207260008201527f6563697069656e74206d61792068617665207265766572746564000000000000602082015250565b6000615718603a83613df9565b9150615723826156bc565b604082019050919050565b600060208201905081810360008301526157478161570b565b9050919050565b7f4552433732313a206f70657261746f7220717565727920666f72206e6f6e657860008201527f697374656e7420746f6b656e0000000000000000000000000000000000000000602082015250565b60006157aa602c83613df9565b91506157b58261574e565b604082019050919050565b600060208201905081810360008301526157d98161579d565b9050919050565b7f4552433732313a207472616e736665722066726f6d20696e636f72726563742060008201527f6f776e6572000000000000000000000000000000000000000000000000000000602082015250565b600061583c602583613df9565b9150615847826157e0565b604082019050919050565b6000602082019050818103600083015261586b8161582f565b9050919050565b7f4552433732313a207472616e7366657220746f20746865207a65726f2061646460008201527f7265737300000000000000000000000000000000000000000000000000000000602082015250565b60006158ce602483613df9565b91506158d982615872565b604082019050919050565b600060208201905081810360008301526158fd816158c1565b9050919050565b7f5265656e7472616e637947756172643a207265656e7472616e742063616c6c00600082015250565b600061593a601f83613df9565b915061594582615904565b602082019050919050565b600060208201905081810360008301526159698161592d565b9050919050565b7f4552433732313a20617070726f766520746f2063616c6c657200000000000000600082015250565b60006159a6601983613df9565b91506159b182615970565b602082019050919050565b600060208201905081810360008301526159d581615999565b9050919050565b7f4552433732313a207472616e7366657220746f206e6f6e20455243373231526560008201527f63656976657220696d706c656d656e7465720000000000000000000000000000602082015250565b6000615a38603283613df9565b9150615a43826159dc565b604082019050919050565b60006020820190508181036000830152615a6781615a2b565b9050919050565b6000615a7982613cdd565b9150615a8483613cdd565b925082615a9457615a93615576565b5b828206905092915050565b600081519050615aae816143c2565b92915050565b600060208284031215615aca57615ac9613d29565b5b6000615ad884828501615a9f565b91505092915050565b7f5361666545524332303a204552433230206f7065726174696f6e20646964206e60008201527f6f74207375636365656400000000000000000000000000000000000000000000602082015250565b6000615b3d602a83613df9565b9150615b4882615ae1565b604082019050919050565b60006020820190508181036000830152615b6c81615b30565b9050919050565b600081519050919050565b600082825260208201905092915050565b6000615b9a82615b73565b615ba48185615b7e565b9350615bb4818560208601613e0a565b615bbd81613e3d565b840191505092915050565b6000608082019050615bdd6000830187613cce565b615bea6020830186613cce565b615bf76040830185613ce7565b8181036060830152615c098184615b8f565b905095945050505050565b600081519050615c2381613d5f565b92915050565b600060208284031215615c3f57615c3e613d29565b5b6000615c4d84828501615c14565b91505092915050565b7f416464726573733a20696e73756666696369656e742062616c616e636520666f60008201527f722063616c6c0000000000000000000000000000000000000000000000000000602082015250565b6000615cb2602683613df9565b9150615cbd82615c56565b604082019050919050565b60006020820190508181036000830152615ce181615ca5565b9050919050565b7f416464726573733a2063616c6c20746f206e6f6e2d636f6e7472616374000000600082015250565b6000615d1e601d83613df9565b9150615d2982615ce8565b602082019050919050565b60006020820190508181036000830152615d4d81615d11565b9050919050565b6000615d5f82615b73565b615d698185615676565b9350615d79818560208601613e0a565b80840191505092915050565b6000615d918284615d54565b915081905092915050565b7f4552433732313a206d696e7420746f20746865207a65726f2061646472657373600082015250565b6000615dd2602083613df9565b9150615ddd82615d9c565b602082019050919050565b60006020820190508181036000830152615e0181615dc5565b9050919050565b7f4552433732313a20746f6b656e20616c7265616479206d696e74656400000000600082015250565b6000615e3e601c83613df9565b9150615e4982615e08565b602082019050919050565b60006020820190508181036000830152615e6d81615e31565b905091905056fea26469706673582212201c8038cb2f5dde6f40a7ee0253027d9d7520a7ed9c16e7449c9ca5253abaf6a964736f6c63430008090033697066733a2f2f516d634b4c7672523576524e677854506a3933484736726e357944327554444361335a707570787843794c696d512f68696464656e2e6a736f6e",
  "immutableReferences": {},
  "source": "// SPDX-License-Identifier: MIT\npragma solidity ^0.8.9;\n\nimport \"@openzeppelin/contracts/token/ERC721/ERC721.sol\";\nimport \"@openzeppelin/contracts/access/Ownable.sol\";\nimport \"@openzeppelin/contracts/security/ReentrancyGuard.sol\";\nimport \"@openzeppelin/contracts/finance/PaymentSplitter.sol\";\nimport \"@openzeppelin/contracts/utils/cryptography/MerkleProof.sol\";\nimport \"@openzeppelin/contracts/utils/Counters.sol\";\nimport \"@openzeppelin/contracts/utils/Strings.sol\";\n\ncontract CreativeCoding is ERC721, Ownable, ReentrancyGuard, PaymentSplitter {\n    using Strings for uint256;\n    using Counters for Counters.Counter;\n\n    bytes32 public root;\n\n    address proxyRegistryAddress;\n\n    uint256 public maxSupply = 10;\n\n    string public baseURI;\n    string public notRevealedUri =\n        \"ipfs://QmcKLvrR5vRNgxTPj93HG6rn5yD2uTDCa3ZpupxxCyLimQ/hidden.json\";\n    string public baseExtension = \".json\";\n\n    bool public paused = false;\n    bool public revealed = false;\n    bool public presaleM = false;\n    bool public publicM = false;\n\n    uint256 presaleAmountLimit = 3;\n    mapping(address => uint256) public _presaleClaimed;\n\n    uint256 _price = 10000000000000000; // 0.01 ETH\n\n    Counters.Counter private _tokenIds;\n\n    uint256[] private _teamShares = [100]; \n    address[] private _team = [0x1899a1DaDA493f5B0Ed642e537bDB03685a03d6C];\n\n    constructor(\n        string memory uri,\n        bytes32 merkleroot,\n        address _proxyRegistryAddress\n    )\n        ERC721(\"CreativeCoding\", \"CRC\")\n        PaymentSplitter(_team, _teamShares) \n        ReentrancyGuard() \n    {\n        root = merkleroot;\n        proxyRegistryAddress = _proxyRegistryAddress;\n\n        setBaseURI(uri);\n    }\n\n    function setBaseURI(string memory _tokenBaseURI) public onlyOwner {\n        baseURI = _tokenBaseURI;\n    }\n\n    function _baseURI() internal view override returns (string memory) {\n        return baseURI;\n    }\n\n    function reveal() public onlyOwner {\n        revealed = true;\n    }\n\n    function setMerkleRoot(bytes32 merkleroot) public onlyOwner {\n        root = merkleroot;\n    }\n\n    modifier onlyAccounts() {\n        require(msg.sender == tx.origin, \"Not allowed origin\");\n        _;\n    }\n\n    modifier isValidMerkleProof(bytes32[] calldata _proof) {\n        require(\n            MerkleProof.verify(\n                _proof,\n                root,\n                keccak256(abi.encodePacked(msg.sender))\n            ) == true,\n            \"Not allowed origin\"\n        );\n        _;\n    }\n\n    function togglePause() public onlyOwner {\n        paused = !paused;\n    }\n\n    function togglePresale() public onlyOwner {\n        presaleM = !presaleM;\n    }\n\n    function togglePublicSale() public onlyOwner {\n        publicM = !publicM;\n    }\n\n    function presaleMint(\n        address account,\n        uint256 _amount,\n        bytes32[] calldata _proof\n    ) external payable isValidMerkleProof(_proof) onlyAccounts {\n        require(msg.sender == account, \"CreativeCoding: Not allowed\");\n        require(presaleM, \"CreativeCoding: Presale is OFF\");\n        require(!paused, \"CreativeCoding: Contract is paused\");\n        require(\n            _amount <= presaleAmountLimit,\n            \"CreativeCoding: You can't mint so much tokens\"\n        );\n        require(\n            _presaleClaimed[msg.sender] + _amount <= presaleAmountLimit,\n            \"CreativeCoding: You can't mint so much tokens\"\n        );\n\n        uint256 current = _tokenIds.current();\n\n        require(\n            current + _amount <= maxSupply,\n            \"CreativeCoding: max supply exceeded\"\n        );\n        require(\n            _price * _amount <= msg.value,\n            \"CreativeCoding: Not enough ethers sent\"\n        );\n\n        _presaleClaimed[msg.sender] += _amount;\n\n        for (uint256 i = 0; i < _amount; i++) {\n            mintInternal();\n        }\n    }\n\n    function publicSaleMint(uint256 _amount) external payable onlyAccounts {\n        require(publicM, \"CreativeCoding: PublicSale is OFF\");\n        require(!paused, \"CreativeCoding: Contract is paused\");\n        require(_amount > 0, \"CreativeCoding: zero amount\");\n\n        uint256 current = _tokenIds.current();\n\n        require(\n            current + _amount <= maxSupply,\n            \"CreativeCoding: Max supply exceeded\"\n        );\n        require(\n            _price * _amount <= msg.value,\n            \"CreativeCoding: Not enough ethers sent\"\n        );\n\n        for (uint256 i = 0; i < _amount; i++) {\n            mintInternal();\n        }\n    }\n\n    function mintInternal() internal nonReentrant {\n        _tokenIds.increment();\n\n        uint256 tokenId = _tokenIds.current();\n        _safeMint(msg.sender, tokenId);\n    }\n\n    function tokenURI(uint256 tokenId)\n        public\n        view\n        virtual\n        override\n        returns (string memory)\n    {\n        require(\n            _exists(tokenId),\n            \"ERC721Metadata: URI query for nonexistent token\"\n        );\n        if (revealed == false) {\n            return notRevealedUri;\n        }\n\n        string memory currentBaseURI = _baseURI();\n\n        return\n            bytes(currentBaseURI).length > 0\n                ? string(\n                    abi.encodePacked(\n                        currentBaseURI,\n                        tokenId.toString(),\n                        baseExtension\n                    )\n                )\n                : \"\";\n    }\n\n    function setBaseExtension(string memory _newBaseExtension)\n        public\n        onlyOwner\n    {\n        baseExtension = _newBaseExtension;\n    }\n\n    function setNotRevealedURI(string memory _notRevealedURI) public onlyOwner {\n        notRevealedUri = _notRevealedURI;\n    }\n\n    function totalSupply() public view returns (uint256) {\n        return _tokenIds.current();\n    }\n\n    /**\n     * Override isApprovedForAll to whitelist user's OpenSea proxy accounts to enable gas-less listings.\n     */\n    function isApprovedForAll(address owner, address operator)\n        public\n        view\n        override\n        returns (bool)\n    {\n        // Whitelist OpenSea proxy contract for easy trading.\n        ProxyRegistry proxyRegistry = ProxyRegistry(proxyRegistryAddress);\n        if (address(proxyRegistry.proxies(owner)) == operator) {\n            return true;\n        }\n\n        return super.isApprovedForAll(owner, operator);\n    }\n}\n\n/**\n  @title An OpenSea delegate proxy contract which we include for whitelisting.\n  @author OpenSea\n*/\ncontract OwnableDelegateProxy {\n\n}\n\n/**\n  @title An OpenSea proxy registry contract which we include for whitelisting.\n  @author OpenSea\n*/\ncontract ProxyRegistry {\n    mapping(address => OwnableDelegateProxy) public proxies;\n}\n",
  "sourcePath": "/Users/jorgeochipinti/Desktop/nft mint/nftimint/contracts/CreativeCoding.sol",
  "compiler": {
    "name": "solc",
    "version": "0.8.9+commit.e5eed63a.Emscripten.clang"
  },
  "schemaVersion": "3.4.3",
  "updatedAt": "2022-05-20T06:01:42.656Z",
  "networkType": "ethereum",
  "devdoc": {
    "kind": "dev",
    "methods": {
      "approve(address,uint256)": {
        "details": "See {IERC721-approve}."
      },
      "balanceOf(address)": {
        "details": "See {IERC721-balanceOf}."
      },
      "getApproved(uint256)": {
        "details": "See {IERC721-getApproved}."
      },
      "name()": {
        "details": "See {IERC721Metadata-name}."
      },
      "owner()": {
        "details": "Returns the address of the current owner."
      },
      "ownerOf(uint256)": {
        "details": "See {IERC721-ownerOf}."
      },
      "payee(uint256)": {
        "details": "Getter for the address of the payee number `index`."
      },
      "release(address)": {
        "details": "Triggers a transfer to `account` of the amount of Ether they are owed, according to their percentage of the total shares and their previous withdrawals."
      },
      "release(address,address)": {
        "details": "Triggers a transfer to `account` of the amount of `token` tokens they are owed, according to their percentage of the total shares and their previous withdrawals. `token` must be the address of an IERC20 contract."
      },
      "released(address)": {
        "details": "Getter for the amount of Ether already released to a payee."
      },
      "released(address,address)": {
        "details": "Getter for the amount of `token` tokens already released to a payee. `token` should be the address of an IERC20 contract."
      },
      "renounceOwnership()": {
        "details": "Leaves the contract without owner. It will not be possible to call `onlyOwner` functions anymore. Can only be called by the current owner. NOTE: Renouncing ownership will leave the contract without an owner, thereby removing any functionality that is only available to the owner."
      },
      "safeTransferFrom(address,address,uint256)": {
        "details": "See {IERC721-safeTransferFrom}."
      },
      "safeTransferFrom(address,address,uint256,bytes)": {
        "details": "See {IERC721-safeTransferFrom}."
      },
      "setApprovalForAll(address,bool)": {
        "details": "See {IERC721-setApprovalForAll}."
      },
      "shares(address)": {
        "details": "Getter for the amount of shares held by an account."
      },
      "supportsInterface(bytes4)": {
        "details": "See {IERC165-supportsInterface}."
      },
      "symbol()": {
        "details": "See {IERC721Metadata-symbol}."
      },
      "tokenURI(uint256)": {
        "details": "See {IERC721Metadata-tokenURI}."
      },
      "totalReleased()": {
        "details": "Getter for the total amount of Ether already released."
      },
      "totalReleased(address)": {
        "details": "Getter for the total amount of `token` already released. `token` should be the address of an IERC20 contract."
      },
      "totalShares()": {
        "details": "Getter for the total shares held by payees."
      },
      "transferFrom(address,address,uint256)": {
        "details": "See {IERC721-transferFrom}."
      },
      "transferOwnership(address)": {
        "details": "Transfers ownership of the contract to a new account (`newOwner`). Can only be called by the current owner."
      }
    },
    "version": 1
  },
  "userdoc": {
    "kind": "user",
    "methods": {
      "isApprovedForAll(address,address)": {
        "notice": "Override isApprovedForAll to whitelist user's OpenSea proxy accounts to enable gas-less listings."
      }
    },
    "version": 1
  }
}