{
  "contractName": "ProxyRegistry",
  "abi": [
    {
      "inputs": [
        {
          "internalType": "address",
          "name": "",
          "type": "address"
        }
      ],
      "name": "proxies",
      "outputs": [
        {
          "internalType": "contract OwnableDelegateProxy",
          "name": "",
          "type": "address"
        }
      ],
      "stateMutability": "view",
      "type": "function"
    }
  ],
  "bytecode": "0x608060405234801561001057600080fd5b506101d3806100206000396000f3fe608060405234801561001057600080fd5b506004361061002b5760003560e01c8063c455279114610030575b600080fd5b61004a600480360381019061004591906100f6565b610060565b6040516100579190610182565b60405180910390f35b60006020528060005260406000206000915054906101000a900473ffffffffffffffffffffffffffffffffffffffff1681565b600080fd5b600073ffffffffffffffffffffffffffffffffffffffff82169050919050565b60006100c382610098565b9050919050565b6100d3816100b8565b81146100de57600080fd5b50565b6000813590506100f0816100ca565b92915050565b60006020828403121561010c5761010b610093565b5b600061011a848285016100e1565b91505092915050565b6000819050919050565b600061014861014361013e84610098565b610123565b610098565b9050919050565b600061015a8261012d565b9050919050565b600061016c8261014f565b9050919050565b61017c81610161565b82525050565b60006020820190506101976000830184610173565b9291505056fea2646970667358221220d2cd6851dee40aeb2cf4d621de020f7e89ee240abe0ea53ff0d35ffd2483010064736f6c63430008090033",
  "immutableReferences": {},
  "source": "// SPDX-License-Identifier: MIT\npragma solidity ^0.8.9;\n\nimport \"@openzeppelin/contracts/token/ERC721/ERC721.sol\";\nimport \"@openzeppelin/contracts/access/Ownable.sol\";\nimport \"@openzeppelin/contracts/security/ReentrancyGuard.sol\";\nimport \"@openzeppelin/contracts/finance/PaymentSplitter.sol\";\nimport \"@openzeppelin/contracts/utils/cryptography/MerkleProof.sol\";\nimport \"@openzeppelin/contracts/utils/Counters.sol\";\nimport \"@openzeppelin/contracts/utils/Strings.sol\";\n\ncontract CreativeCoding is ERC721, Ownable, ReentrancyGuard, PaymentSplitter {\n    using Strings for uint256;\n    using Counters for Counters.Counter;\n\n    bytes32 public root;\n\n    address proxyRegistryAddress;\n\n    uint256 public maxSupply = 10;\n\n    string public baseURI;\n    string public notRevealedUri =\n        \"ipfs://QmcKLvrR5vRNgxTPj93HG6rn5yD2uTDCa3ZpupxxCyLimQ/hidden.json\";\n    string public baseExtension = \".json\";\n\n    bool public paused = false;\n    bool public revealed = false;\n    bool public presaleM = false;\n    bool public publicM = false;\n\n    uint256 presaleAmountLimit = 3;\n    mapping(address => uint256) public _presaleClaimed;\n\n    uint256 _price = 10000000000000000; // 0.01 ETH\n\n    Counters.Counter private _tokenIds;\n\n    uint256[] private _teamShares = [100]; \n    address[] private _team = [0x1899a1DaDA493f5B0Ed642e537bDB03685a03d6C];\n\n    constructor(\n        string memory uri,\n        bytes32 merkleroot,\n        address _proxyRegistryAddress\n    )\n        ERC721(\"CreativeCoding\", \"CRC\")\n        PaymentSplitter(_team, _teamShares) \n        ReentrancyGuard() \n    {\n        root = merkleroot;\n        proxyRegistryAddress = _proxyRegistryAddress;\n\n        setBaseURI(uri);\n    }\n\n    function setBaseURI(string memory _tokenBaseURI) public onlyOwner {\n        baseURI = _tokenBaseURI;\n    }\n\n    function _baseURI() internal view override returns (string memory) {\n        return baseURI;\n    }\n\n    function reveal() public onlyOwner {\n        revealed = true;\n    }\n\n    function setMerkleRoot(bytes32 merkleroot) public onlyOwner {\n        root = merkleroot;\n    }\n\n    modifier onlyAccounts() {\n        require(msg.sender == tx.origin, \"Not allowed origin\");\n        _;\n    }\n\n    modifier isValidMerkleProof(bytes32[] calldata _proof) {\n        require(\n            MerkleProof.verify(\n                _proof,\n                root,\n                keccak256(abi.encodePacked(msg.sender))\n            ) == true,\n            \"Not allowed origin\"\n        );\n        _;\n    }\n\n    function togglePause() public onlyOwner {\n        paused = !paused;\n    }\n\n    function togglePresale() public onlyOwner {\n        presaleM = !presaleM;\n    }\n\n    function togglePublicSale() public onlyOwner {\n        publicM = !publicM;\n    }\n\n    function presaleMint(\n        address account,\n        uint256 _amount,\n        bytes32[] calldata _proof\n    ) external payable isValidMerkleProof(_proof) onlyAccounts {\n        require(msg.sender == account, \"CreativeCoding: Not allowed\");\n        require(presaleM, \"CreativeCoding: Presale is OFF\");\n        require(!paused, \"CreativeCoding: Contract is paused\");\n        require(\n            _amount <= presaleAmountLimit,\n            \"CreativeCoding: You can't mint so much tokens\"\n        );\n        require(\n            _presaleClaimed[msg.sender] + _amount <= presaleAmountLimit,\n            \"CreativeCoding: You can't mint so much tokens\"\n        );\n\n        uint256 current = _tokenIds.current();\n\n        require(\n            current + _amount <= maxSupply,\n            \"CreativeCoding: max supply exceeded\"\n        );\n        require(\n            _price * _amount <= msg.value,\n            \"CreativeCoding: Not enough ethers sent\"\n        );\n\n        _presaleClaimed[msg.sender] += _amount;\n\n        for (uint256 i = 0; i < _amount; i++) {\n            mintInternal();\n        }\n    }\n\n    function publicSaleMint(uint256 _amount) external payable onlyAccounts {\n        require(publicM, \"CreativeCoding: PublicSale is OFF\");\n        require(!paused, \"CreativeCoding: Contract is paused\");\n        require(_amount > 0, \"CreativeCoding: zero amount\");\n\n        uint256 current = _tokenIds.current();\n\n        require(\n            current + _amount <= maxSupply,\n            \"CreativeCoding: Max supply exceeded\"\n        );\n        require(\n            _price * _amount <= msg.value,\n            \"CreativeCoding: Not enough ethers sent\"\n        );\n\n        for (uint256 i = 0; i < _amount; i++) {\n            mintInternal();\n        }\n    }\n\n    function mintInternal() internal nonReentrant {\n        _tokenIds.increment();\n\n        uint256 tokenId = _tokenIds.current();\n        _safeMint(msg.sender, tokenId);\n    }\n\n    function tokenURI(uint256 tokenId)\n        public\n        view\n        virtual\n        override\n        returns (string memory)\n    {\n        require(\n            _exists(tokenId),\n            \"ERC721Metadata: URI query for nonexistent token\"\n        );\n        if (revealed == false) {\n            return notRevealedUri;\n        }\n\n        string memory currentBaseURI = _baseURI();\n\n        return\n            bytes(currentBaseURI).length > 0\n                ? string(\n                    abi.encodePacked(\n                        currentBaseURI,\n                        tokenId.toString(),\n                        baseExtension\n                    )\n                )\n                : \"\";\n    }\n\n    function setBaseExtension(string memory _newBaseExtension)\n        public\n        onlyOwner\n    {\n        baseExtension = _newBaseExtension;\n    }\n\n    function setNotRevealedURI(string memory _notRevealedURI) public onlyOwner {\n        notRevealedUri = _notRevealedURI;\n    }\n\n    function totalSupply() public view returns (uint256) {\n        return _tokenIds.current();\n    }\n\n    /**\n     * Override isApprovedForAll to whitelist user's OpenSea proxy accounts to enable gas-less listings.\n     */\n    function isApprovedForAll(address owner, address operator)\n        public\n        view\n        override\n        returns (bool)\n    {\n        // Whitelist OpenSea proxy contract for easy trading.\n        ProxyRegistry proxyRegistry = ProxyRegistry(proxyRegistryAddress);\n        if (address(proxyRegistry.proxies(owner)) == operator) {\n            return true;\n        }\n\n        return super.isApprovedForAll(owner, operator);\n    }\n}\n\n/**\n  @title An OpenSea delegate proxy contract which we include for whitelisting.\n  @author OpenSea\n*/\ncontract OwnableDelegateProxy {\n\n}\n\n/**\n  @title An OpenSea proxy registry contract which we include for whitelisting.\n  @author OpenSea\n*/\ncontract ProxyRegistry {\n    mapping(address => OwnableDelegateProxy) public proxies;\n}\n",
  "sourcePath": "/Users/jorgeochipinti/Desktop/nft mint/nftimint/contracts/CreativeCoding.sol",
  "compiler": {
    "name": "solc",
    "version": "0.8.9+commit.e5eed63a.Emscripten.clang"
  },
  "schemaVersion": "3.4.3",
  "updatedAt": "2022-05-20T05:27:56.243Z",
  "devdoc": {
    "author": "OpenSea",
    "kind": "dev",
    "methods": {},
    "title": "An OpenSea proxy registry contract which we include for whitelisting.",
    "version": 1
  },
  "userdoc": {
    "kind": "user",
    "methods": {},
    "version": 1
  }
}